:100000000213D4D3EF9400EE940040147D727C0070
:10001000ED1D70011CED4C70F7EF1F70E61E80E3C4
:0100200022BD
:100023000217C80203E7E86480F8E933E833601194
:100033000460F0ED33EC337009E8FCE9FDEAFEEB14
:10004300FF220460DED3EB9FEA9EE99DE8C2E78CC2
:10005300F0C2F795F0400CE8CCF8E9CDF9EACEFA16
:10006300EBCFFB1203B285D0F05804700320D5B355
:10007300E80470075002B2D50203F192D5EC046094
:10008300F7E4CCC0E0C398F8603B94186008400DD7
:10009300D0E0FB0203C9E4FBFAC9FC8028E830E4A2
:1000A30006E4C9FBE4CAFCE830E305E4C9CACBFCB7
:1000B300E854076010F8C3E913F9EA13FAEB13FBEA
:1000C300EC13FCD8F130F52FC3E49CFCEF9BFFEE5F
:1000D3009AFEED99FDD0E0FBEF4E4D4C701222DB02
:1000E300030203EEEC2CFCEF33FFEE33FEED33FDA6
:1000F300ED30E7EB0203C9EF2BFFEE3AFEED39FDDE
:10010300D0E0FB50130BBB00030203F1ED13FDEE34
:1001130013FEEF13FFEC13FC0203C9EC4D6011E86F
:10012300497017ED33EC3304600DE4FCFFFEFD2250
:10013300E933E8330470F80203E71203B2580460AA
:1001430009E4CC248150062850090203F128400316
:100153000203EEC0E0EB4A7044B98006D0E0FB0234
:1001630003DDEF4E701CBD8008EBFFEAFEE9FD8066
:10017300EBE98DF0A4FEE5F0020207E9CDF9EAFE12
:10018300EBFFEF89F0A4FCE5F0CE89F0A42EFFE4A9
:1001930035F0CD89F0A42DFEE435F08067EF4E7085
:1001A30005BD80D780C3EF8BF0A4ACF0EE8BF0A439
:1001B3002CFCE435F0F8EF8AF0A42CE5F038FCE4ED
:1001C30033CB8DF0A42CFCE5F03BF8EE8AF0A42CA5
:1001D300FCE5F038F8E433CF89F0A42CFCE5F038E3
:1001E300CF3400CE89F0A42FFFE5F03EFEE433C9FF
:1001F3008DF0A42EFEE5F039CD8AF0A42FFFE5F0B3
:100203003EFEE43DFD33D0E0FB50070BBB000F0285
:1002130003F1EC2CFCEF33FFEE33FEED33FD020371
:10022300C90203F1EC5D046005E85904700302039D
:10023300E71203B2580460F6EC4860F2EC7004FD78
:10024300FEFF22C860DB2481C85009C398600250B6
:10025300060203EE9850CAF582E9294B4A7005ABB2
:10026300820203DD75F0007C1A7880C3EF9BEE9A5F
:10027300ED99400DC3EF9BFFEE9AFEED99FDE84229
:10028300F0DC23ACF0D0E0FFD0E0FED0E0FDAB82A9
:1002930020E7101BEB60BAEC2CFCEF33FFEE33FED0
:1002A300ED33FD0203C9E803F830E705C0F075F04C
:1002B30000EF2FFFEE33FEED33FD40B830E7C28091
:1002C300AA74F8CC6480CCC86480C8F58204604FFB
:1002D300C3EB9FF5F0EA9E42F0E99D42F0E89C45AE
:1002E300F0603C501DE5825FFFE582D313CB5BCB0F
:1002F300F42B5582FB50280ABA002409B9002008C0
:10030300801DE5825BFBE582D313CF5FCFF4C3137C
:100313002F5582FF50090EBE00050DBD00010CC311
:10032300EB9FF5F0EA9E42F0E99D42F0E89C45F030
:100333006007CC4820E701B3EC2275F020800E75EE
:10034300F010800575F0087D007E007F003392D5A4
:1003530030D503120749EC334010EF33FFEE33FE81
:10036300ED33FDEC33FCD5F0ED22E5F0247EA2D590
:1003730013CC92E7CDCEFF22EDD2E7CD33EC33920F
:10038300D524814006E4FFFEFDFC22FCE4CFCECD64
:10039300CC24E0501174FF80EDC3CC13CCCD13CD2E
:1003A300CE13CECF13CF0470F030D5DE020749E968
:1003B300D2E7C933E833F892D5EDD2E7CD33EC3346
:1003C300FC5002B2D522EC30E7100FBF000C0EBE7A
:1003D30000080DBD00040BEB6014A2D5EB13FCED7C
:1003E30092E7FD2274FFFCFDFEFF22E480F8A2D514
:1003F30074FF13FC7D80E480EFF920E72824F95093
:10040300037907E4F42402FB18DBFDE624FB501414
:10041300E9600DE4F618E604F6B40A08E4F6D9F543
:100423007401F60A22C2D522ED33EC3392D5FA6079
:100433002AB4FF33EDC2E77BFF60067A047950E408
:10044300227A04795920D5047A047954224E614ED4
:10045300002B494E46002D494E4600E47A08F60823
:10046300DAFC7B00740722E8C0E0ECC0E0EDC0E0FA
:10047300EEC0E0EFC0E0EA75F010A4CAABF075F08F
:100483004DA42BFBE435F0FCEA2410FAEB34C5FB56
:10049300EC34D9FCEDC2E7FF75F056A4F42411C582
:1004A300F0F434C58FF0A42AE5F03BE43CF620E7F2
:1004B3001412055ED0E0FFD0E0FED0E0FDD0E0FCFA
:1004C3001202278014F40412055ED0E0FFD0E0FE90
:1004D300D0E0FDD0E0FC12011ED0E0F8E6FAEDD248
:1004E300E7CD33EC332482FBE4C3CF33CFCE33CE1B
:1004F300CD33CD33DBF37B0775F00A846004F60854
:100503001B0AE5F0F6088FF0740AA4FFACF08EF036
:10051300740AA42CFEACF050010C8DF0740AA42CC8
:10052300FDE435F0F608DBDE7407223F800000416E
:1005330020000042C80000447A0000461C400047E7
:10054300C35000497424004B1896804CBEBC205AFB
:100553000E1BCA6753C21C749DC5AEFB60065407CD
:10056300601C232312058CEB5438600912057812A2
:10057300058712011EECF8EDF9EEFAEFCB22EB1230
:10058300058780F1543803241C90052EFE93FC0E3E
:10059300EE93FD0EEE930ECE93FF22BB01068982EE
:1005A3008A83E0225002E722BBFE02E32289828A89
:1005B30083E49322BB010CE58229F582E5833AF5B6
:1005C30083E0225006E92582F8E622BBFE06E925F0
:1005D30082F8E222E58229F582E5833AF583E49302
:1005E30022BB010689828A83F0225002F722BBFED6
:1005F30001F322C2D5EC30E709B2D5E4C39DFDE493
:100603009CFCEE30E715B2D5E4C39FFFE49EFE12D7
:10061300078DC3E49DFDE49CFC800312078D30D558
:1006230007C3E49FFFE49EFE22E88FF0A4CC8BF087
:10063300A42CFCE98EF0A42CFC8AF0EDA42CFCEA9B
:100643008EF0A4CDA8F08BF0A42DCC3825F0FDE9D5
:100653008FF0A42CCD35F0FCEB8EF0A4FEA9F0EBCB
:100663008FF0A4CFC5F02ECD39FEE43CFCEAA42DD7
:10067300CE35F0FDE43CFC2275F008758200EF2FC7
:10068300FFEE33FECD33CDCC33CCC58233C5829B55
:10069300ED9AEC99E58298400CF582EE9BFEED9A7B
:1006A300FDEC99FC0FD5F0D6E4CEFBE4CDFAE4CC17
:1006B300F9A88222B800C1B90059BA002DEC8BF019
:1006C30084CFCECDFCE5F0CBF97818EF2FFFEE33D6
:1006D300FEED33FDEC33FCEB33FB10D70399400401
:1006E300EB99FB0FD8E5E4F9FA227818EF2FFFEE28
:1006F30033FEED33FDEC33FCC933C910D7059BE959
:100703009A4007EC9BFCE99AF90FD8E0E4C9FAE4B4
:10071300CCFB2275F010EF2FFFEE33FEED33FDCC53
:1007230033CCC833C810D7079BEC9AE899400AED3D
:100733009BFDEC9AFCE899F80FD5F0DAE4CDFBE4E5
:10074300CCFAE4C8F922C3E49FFFE49EFEE49DFDD6
:10075300E49CFC22FAE6FB0808E6F925F0F618E625
:10076300CA3AF622D083D082F8E4937012740193CC
:10077300700DA3A393F8740193F5828883E47374D3
:1007830002936860EFA3A3A380DFBC000BBE002924
:10079300EF8DF084FFADF022E4CCF875F008EF2F75
:1007A300FFEE33FEEC33FCEE9DEC984005FCEE9D32
:1007B300FE0FD5F0E9E4CEFD22EDF8F5F0EE84204E
:1007C300D21CFEADF075F008EF2FFFED33FD4007AF
:1007D300985006D5F0F222C398FD0FD5F0EA22E532
:1007E30063244FF8E6056322784C300702784FE420
:1007F30075F00112075702059E2000EB7F2ED200F1
:100803008018EF540F2490D43440D4FF30040BEFFE
:1008130024BFB41A0050032461FFE5646002156429
:100823000567E5677002056630070D784CE475F0DF
:1008330001120757EF0205E40218087403D2078078
:1008430003E4C207F5638B4C8A4D894EE4F564F5E6
:1008530066F567E56460077F2012081D80F57565FE
:10086300FFC201C200C202C203C205C206C208120D
:1008730007EBFF700D3007057F0012082EAF67AE40
:100883006622B4255FC2D5C2041207EBFF24D0B49D
:100893000A00501A75F00A786430D50508B6FF01CE
:1008A30006C6A426F620D5047002D20380D924CF2D
:1008B300B41A00EF5004C2E5D204020B1BD201802C
:1008C300C6D20080C0D20280BCD2D580BAD2058005
:1008D300B47F2012081D2002077401B5640040F1A3
:1008E3001207E2FF12081D020856D208D2068095AD
:1008F3001207E2FB1207E2FA1207E2F94A4B70060B
:1009030079127A0C7BFF20022EE564602A7E008E2A
:10091300827583001205B760060EEE656570F0C23E
:10092300D5EBC0E0EAC0E0E9C0E0EE120B7BD0E01B
:10093300F9D0E0FAD0E0FB12059EFF60AAEBC0E01D
:10094300EAC0E0E9C0E012081DD0E02401F9D0E0DC
:100953003400FAD0E0FBE5650460DCD565D9808717
:10096300D20280A2120B5E60F7E5657001041203E8
:10097300FCA965600DE565600914F565120C05EFCA
:1009830060F3EA30E702F404C3995077EAF425658B
:100993000430E701E404F565800D120B5E60C1EAE3
:1009A300056525651203FCEA7862F630E701E42564
:1009B3006504D5650420050114120B7BE4C0E01225
:1009C3000C057862E6601320E70714F61208058029
:1009D3002204F6D0E014C0E07F00120805E565604C
:1009E300071207FC1565800B3005031207FCD0E0E6
:1009F300020856D0E00480C5120B5E60A0E56504D2
:100A03001203FC7862EAF6E565200502600104241E
:100A130004120B7B74FF04C0E0120C05120805E5F9
:100A23006520050260031207FCD0E0B565E87F4549
:100A330012080F7862E67F2B30E7047F2DF404C0A1
:100A4300E012081DD0E075F00A84C0F0120806D049
:100A5300E0120806020856791080027908C206C21D
:100A6300088008D2D5790A8004790AC2D5E56504DD
:100A73007002F565E4FAFDFEFF1207E2FC7B082035
:100A830001131207E2FD7B1030000A1207E2FE1287
:100A930007E2FF7B20EC3382D592D55013C3E430B9
:100AA30000069FFFE49EFEE42001039DFDE49CFC01
:100AB300E4CBF8C201EC700CCFCECDCCE824F8F82F
:100AC30070F38017C3EF33FFEE33FEED33FDEC33EA
:100AD300FCEB33FB994002FB0FD8E9EB300105F83F
:100AE300D0E0C448B201C0E00AEC4D4E4F78207B01
:100AF3000070C2EAB5650040BCC0E0120B7DD0F0C7
:100B0300D0E0200104C4C0E0C4B201C0F012080662
:100B1300D0F0D5F0EB02085612076708F3530A5AD0
:100B23005808C44C08C0420A5E4F0A66440A664924
:100B330008D9430A6C55099D4609FB450967470CCB
:100B4300325008C82D08CC2E08EF2B08D02308ED0F
:100B5300200C1B2A088848000008E7E565B4FF035A
:100B63007565061207E2FC1207E2FD1207E2FE12A8
:100B730007E2FF785B02042B790AA2D52003143025
:100B83000509B910020404B9080104A2D52006021C
:100B93005001042002689202B564005034C0E07F23
:100BA300203003197F30A20272067205500F120B18
:100BB300D4C202C206C205C2087F30800F300503CB
:100BC300E9C0E012081D300503D0E0F9D0E0B564B8
:100BD300CC3005177F30B9100C12081D7F58300434
:100BE300077F788003B9080312081D3002057F2DA3
:100BF30002081D7F202008F87F2B2006F322920293
:100C030080CF7F00B407005005245BF8E6FF22285D
:100C13006E756C6C2900D2011207E23001F8C20133
:100C2300786430D50108F60208882D5043495812DC
:100C330007E22403B405004001E4900C2D9312084D
:100C43000E743A12080ED203756404020A5AAB3FBB
:100C5300AA3EA93DA83CAF37AE36AD35AC34120041
:100C6300298F478E468D458C44121460E4FFFEFDA8
:100C73007C3FAB47AA46A945A8441202C46008407A
:100C830006E4751B5A8017E4FFFEFD7CBFAB47AA41
:100C930046A945A8441202C4500DE4751B1EF51A5B
:100CA300F519F518020F71E4FFFEFDFCAB47AA46E8
:100CB300A945A8441202C460025003020E0EAF3BC2
:100CC300AE3AAD39AC38AB47AA46A945A8441201A0
:100CD3001E12037B8F4F8E4E8D4D8C4CAB25AA2459
:100CE300A923A822C000C001C002C003AF33AE32A3
:100CF300AD31AC30AB47AA46A945A84412011ED07A
:100D030003D002D001D00012002D8F258E248D2315
:100D13008C22E4FFFE7DFA7C43AB25AA24A923A8F9
:100D2300221202C4600D400BE4F525F5247523FA65
:100D3300752243E4FFFE7DFA7CC3AB25AA24A923D5
:100D4300A8221202C4500BE4F525F5247523FA7585
:100D530022C3AB29AA28A927A826AF47AE46AD458B
:100D6300AC44120029AB2FAA2EA92DA82C12011EC8
:100D730012037B8F538E528D518C508547298546A4
:100D830028854527854426AF25AE24AD23AC221202
:100D930017AFE4FBFA79C8784212022712037BC02B
:100DA30004C005C006C007E47B64FAF9F8AF4FAE90
:100DB3004EAD4DAC4C1215BDEF2543FFEE3542FE53
:100DC300ED3541FDEC3540FCD003D002D001D0001D
:100DD300EF2BFFEE3AFEED39FDEC38FCC004C00505
:100DE300C006C007E47B64FAF9F8AF53AE52AD51C5
:100DF300AC501215BDD003D002D001D000EF2BFFB1
:100E0300EE3AFEED39FDEC38020F69AF47AE46AD61
:100E130045AC441217AFAB3BAA3AA939A838120123
:100E23001E12037B8F4F8E4E8D4D8C4CAB25AA2407
:100E3300A923A822C000C001C002C003AF33AE3251
:100E4300AD31AC30AB47AA46A945A84412011ED028
:100E530003D002D001D00012002D8F258E248D23C4
:100E63008C22E4FFFE7DFA7C43AB25AA24A923A8A8
:100E7300221202C4600D400BE4F525F5247523FA14
:100E8300752243E4FFFE7DFA7CC3AB25AA24A92384
:100E9300A8221202C4500BE4F525F5247523FA7534
:100EA30022C3AB29AA28A927A826AF47AE46AD453A
:100EB300AC441200291217AFAB2FAA2EA92DA82CD0
:100EC30012011E12037B8F538E528D518C50854716
:100ED30029854628854527854426AF25AE24AD239D
:100EE300AC221217AFE4FBFA79C878421202271238
:100EF300037BC004C005C006C007E47B64FAF9F8AD
:100F0300AF4FAE4EAD4DAC4C1215BDC3E5439FFF85
:100F1300E5429EFEE5419DFDE5409CFCD003D002E9
:100F2300D001D000C3EF9BFFEE9AFEED99FDEC9844
:100F3300FCC004C005C006C007E47B64FAF9F8AF3F
:100F430053AE52AD51AC501215BDA804A905AA0663
:100F5300AB07D007D006D005D004C3EF9BFFEE9AB2
:100F6300FEED99FDEC988F1B8E1A8D19F518E4FF91
:100F7300FE7DFA7C43AB25AA24A923A8221202C42E
:100F83006014E4FFFE7DFA7CC3AB25AA24A923A841
:100F9300221202C4702FAF47AE46AD45AC441217C0
:100FA300AF7BCD7ACC79CC783E1202C46017401562
:100FB300E4F525F524F523F522851B43851A42859F
:100FC3001941851840228F4C8C4D8D4EE4F558FF06
:100FD300FEFDFCAB52AA51A950A84F1202C45039CE
:100FE300E4F559121635E4F55775F010E559A425C3
:100FF30057F582E435F0F583E582247EF582E583B7
:10100300343412160C0557E557C3941040DB0559C9
:10101300E559C3940840CC8037E4F559121635E4FA
:10102300F55775F010E559A42557F582E435F0F529
:1010330083E582247EF582E583343C12160C055742
:10104300E557C3941040DB0559E559C3940840CCD8
:101053007410254CF54CAF52AE51AD50AC4F121736
:10106300AFE4FBFA7920784112011E12037BAB0730
:10107300AA067C007D641205F6EF2405F5537C0077
:101083007D0AAF03AE021205F67C007D0A1205F657
:10109300ED2405F554755504AE02AF037C007D0ABB
:1010A3001205F6ED2405F556E5536405704FF55921
:1010B300121635E4F557E55975F010A47C00255751
:1010C300FFEC35F0FE75F080E565A4247EF582E53E
:1010D300F03433F583E5822FF582E5833EF583E42F
:1010E30093F4FFE4F4FE1216130557E557C3941067
:1010F30040C40559E559C3940840B58061E558C318
:1011030094045064E54C9478400BE4F54C054EE5AB
:101113004E7002054DE4F559121635E4F557E559BD
:1011230075F010A47C002557FFEC35F0FE745325B1
:1011330058F8E675F080A4247EF582E5F03433F5A3
:1011430083E5822FF582E5833E12160C0557E5579A
:10115300C3941040C90559E559C3940840BA7410A3
:10116300254CF54C05588095E4F559121635E4F5F0
:101173005775F010E559A42557F582E435F0F5834A
:10118300E58224FEF582E583343B12160C0557E510
:1011930057C3941040DB0559E559C3940840CC74F8
:1011A30010254CF54CE4F559121635E4F55775F056
:1011B30010E559A42557F582E435F0F583E582243B
:1011C3007EF582E583343B12160C0557E557C3942D
:1011D3001040DB0559E559C3940840CC22E4F54B94
:1011E300F54AF549F548F594F5931213051215716F
:1011F30012151F1216F47BFF7A3C79FE1208441273
:1012030017751217751217751217751217751217AE
:101213007512177512177512177512177512177540
:101223001217751217751217751217751217751293
:10123300177512177512177512177512177512177E
:101243007512177512177512151F1217A21217753B
:101253001214CC8F378E368D358C34E4F54BF54A2A
:10126300F549F5487FCD7ECC7DCC7C3DAB37AA36A6
:10127300A935A8341202C450177FCD7ECC7DCC7C17
:10128300BDAB37AA36A935A8341202C46002502F69
:10129300AB37AA36A935A834AF4BAE4AAD49AC48F3
:1012A3001200291217AF7BCD7ACC79CC783D12028C
:1012B300C4500C85374B85364A8535498534488576
:1012C3004B52854A5185495085484FE4FDFCFF1236
:1012D3000FC9120C517BFF7A3D790D853752853644
:1012E3005185355085344F1208447BFF7A3D791A76
:1012F300851B52851A5185195085184F12084402CF
:10130300124A7FF47E011200037FAE7E0012169014
:1013130012168D7F107E001216907F407E001216EB
:10132300907F817E001216907FCF7E001216907FF1
:10133300A17E001216907FC87E001216907FA67EB3
:10134300001216907FA87E001216907F3F7E001237
:1013530016907FD37E0012169012168D7FD57E00D5
:101363001216907F807E001216907FD97E0012168F
:10137300907FF17E001216907FDA7E001216907F26
:10138300127E001216907FDB7E001216907F407E45
:10139300001216907F207E001216907F027E0012AC
:1013A30016907F8D7E001216907F147E0012169089
:1013B3007FA47E001216907FA67E001216907FAF48
:1013C3007E00121690E4FFFE121690E4FDFF021653
:1013D3003C787FE4F6D8FD75816702141B0211E0A7
:1013E300E493A3F8E493A34003F68001F208DFF447
:1013F3008029E493A3F85407240CC8C333C4540FBF
:101403004420C8834004F456800146F6DFE4800B91
:1014130001020408102040809016B2E47E0193601C
:10142300BCA3FF543F30E509541FFEE493A36001BE
:101433000ECF54C025E060A840B8E493A3FAE49328
:10144300A3F8E493A3C8C582C8CAC583CAF0A3C8D6
:10145300C582C8CAC583CADFE9DEE780BEAF47AE2F
:1014630046AD45AC441217AF7B9A7A997999783E89
:101473001202C4600C400A052BE52B7009052A8073
:1014830005E4F52AF52BAF47AE46AD45AC4412173C
:10149300AF7B9A7A997999783E1202C46020401EF4
:1014A300D3E52B940AE52A6480948040117F0112CE
:1014B30017DEE4FF1217E7752A00752B6422E4FF99
:1014C3001217DE7F011217E7221217287FCC12179B
:1014D3000F7FBE12170F1216D7AB071216D7EFFEE8
:1014E300EBFFFDAC06EC120342E4FBFA7980784192
:1014F300120227E4FBFA7920784112011EE4FBFA79
:10150300F9783F12002D12037BAD07AC06EC1203F2
:1015130042E4FBFA7920784112022722E4F5B2F57E
:10152300B143BA80F5F190FFF27404F090FFF0E557
:101533001EF0A3E51FF090FF00E4F0A3F0AF1BAE95
:101543001AAD19AC18AB1FAA1EA91DA81C12062C94
:10155300E47B64FAF9F81206B790FF02EEF0A3EF0A
:10156300F0A3E4F075F50143F58053BA7F22E4F567
:101573004CF54DE54D24B0FFE4354CFE121690E4D6
:10158300FFFE1216907F107E00121690E4F54EF5C2
:101593004FE4FFFE121613054FE54F7002054EC3CD
:1015A3009480E54E940040E9054DE54D7002054CED
:1015B300C39408E54C940040BA22C2D5E830E70F43
:1015C300B2D5E4C39BFBE49AFAE499F9E498F8EC06
:1015D30030E717B2D51215F31206B7E4C39BFBE449
:1015E3009AFAE499F9E498F880031206B730D50D16
:1015F300E4C39FFFE49EFEE49DFDE49CFC22F5838F
:10160300E5822500F582E43583F583E493FF7E00CC
:101613008E5A8F5B1217937F781216611217647FAD
:1016230040121661121764AF5B121661121764023F
:1016330017BCE559254EFDAF4C8F5AED24B0FFE49E
:1016430033FE121690E55A54F0C4540F7E00441032
:10165300FF121690E55A540FFF7E00021690AD0755
:10166300E4FCC2807F05121788ED30E704D2818045
:1016730002C2817F05121788D280ED25E0FD7F0528
:101683001217880CBC08DBC28022E4FFFE8E5B8F3E
:101693005C1217937F78121661121764E4FF121617
:1016A30061121764AF5C1216611217640217BC044F
:1016B3001C00005666043C00000000043844FA0095
:1016C30000043041A00000042C42C8000004400084
:1016D30000004600E4FDFC12173EEF600D7401A804
:1016E30004088002C333D8FC42050CBC08E9AF05EB
:1016F30022759850438E40538EFE53890F758BE0AD
:10170300758DFEC2ABD28ED2ACD2AF22AD07E4FC54
:101713007401A804088002C333D8FC5DFF1217527A
:101723000CBC08EC22D290C2901217D3D29012179D
:10173300F8A290E433FD1217D3FF22C290121814BB
:10174300D290121814A290E433FE121800FF22AEB6
:1017530007C29012180EEE24FF9290121800D29036
:1017630022121784A2819200C2807F05121788A2D9
:10177300002200007F057E347DC3DDFEDEFCDFFA40
:1017830022D2807F05AE071FEE6004000080F622A0
:10179300D281121784C2817F05121788C280221258
:1017A30017287FCC12170F7F4402170FED33EC334A
:1017B30060065004EC6480FC22C281121784D2813B
:1017C3007F05021788309902C299309802C2983275
:1017D30000007F067E5DDEFEDFFC22EF6003C28237
:1017E30022D28222EF6003C28322D283228F9930D6
:1017F30099FDC299220000007FDADFFE220000007B
:101803007F87DFFE22AE071217F022007F19DFFE6B
:1018130022007F0BDFFE220000000000000000001A
:101823002F000000000700070000147F147F14003E
:10183300242A7F2A120062640813230036495522A2
:101843005000000503000000001C2241000000417D
:10185300221C000014083E08140008083E08080073
:101863000000A0600000080808080800006060008D
:1018730000002010080402003E5149453E0000428A
:101883007F4000004261514946002141454B3100F0
:101893001814127F10002745454539003C4A494931
:1018A30030000171090503003649494936000649EC
:1018B30049291E000036360000000056360000009D
:1018C30008142241000014141414140000412214BB
:1018D3000800020151090600324959513E007C12A9
:1018E30011127C007F49494936003E4141412200A3
:1018F3007F4141221C007F49494941007F09090971
:1019030001003E4149497A007F0808087F000041F1
:101913007F4100002040413F01007F081422410025
:101923007F40404040007F020C027F007F0408108C
:101933007F003E4141413E007F09090906003E41C7
:1019430051215E007F091929460046494949310062
:1019530001017F0101003F4040403F001F20402024
:101963001F003F4038403F0063140814630007081A
:1019730070080700615149454300007F4141000061
:10198300552A552A55000041417F000004020102F7
:101993000400404040404000000102040000205485
:1019A300545478007F484444380038444444200069
:1019B300384444487F00385454541800087E0901C1
:1019C300020018A4A4A47C007F0804047800004447
:1019D3007D4000004080847D00007F10284400008B
:1019E30000417F4000007C04180478007C08040454
:1019F3007800384444443800FC2424241800182474
:101A03002418FC007C0804040800485454542000A3
:101A1300043F444020003C4040207C001C204020E8
:101A23001C003C4030403C004428102844001CA0CB
:101A3300A0A07C004464544C4414141414141400E3
:101A43000000000000000000000000000000000093
:101A53000000F80000000000000033300000000028
:101A6300100C06100C0600000000000000000040EF
:101A7300C07840C0784000043F04043F04040000E1
:101A83007088FC08300000001820FF211E0000F0C1
:101A930008F000E018000000211C031E211E0000B6
:101AA300F00888700000001E21232419272110103C
:101AB300160E0000000000000000000000000000FF
:101AC3000000E01804020000000007182040000096
:101AD300020418E000000000402018070000004046
:101AE3004080F0804040000202010F01020200002A
:101AF3000000F0000000000101011F0101010000CE
:101B03000000000000000080B07000000000000032
:101B130000000000000000000101010101010100BB
:101B23000000000000000000303000000000000052
:101B33000000008060180400601806010000000027
:101B4300E010080810E000000F102020100F000024
:101B53001010F8000000000020203F2020000000AB
:101B63007008080888700000302824222130000003
:101B7300300888884830000018202020110E00000B
:101B830000C02010F8000000070424243F240000B4
:101B9300F80888880808000019212020110E000089
:101BA300E0108888180000000F112020110E00009B
:101BB300380808C83808000000003F000000000093
:101BC30070880808887000001C222121221C000054
:101BD300E010080810E0000000312222110F00007D
:101BE3000000C0C000000000000030300000000012
:101BF3000000800000000000008060000000000082
:101C0300008040201008000001020408102000405A
:101C13004040404040400004040404040404000025
:101C2300081020408000000020100804020100007A
:101C33007048080808F0000000003036010000C0BA
:101C430030C828E810E0000718272423140B0000ED
:101C530000C038E0000000203C230202273820089F
:101C6300F8888888700000203F202020110E00C0D3
:101C7300300808080838000718202020100800083A
:101C8300F808080810E000203F202020100F00086B
:101C9300F88888E8081000203F2020232018000837
:101CA300F88888E8081000203F200003000000C0E7
:101CB3003008080838000007182020221E020008F8
:101CC300F808000008F808203F210101213F200007
:101CD3000808F8080800000020203F20200000002A
:101CE300000808F8080800C08080807F0000000812
:101CF300F888C028180800203F2001263820000853
:101D0300F8080000000000203F20202020300008B9
:101D1300F8F800F8F80800203F003F003F200008D3
:101D2300F830C00008F808203F200007183F00E003
:101D33001008080810E0000F10202020100F0008E2
:101D4300F808080808F000203F210101010000E025
:101D53001008080810E0000F18242438504F00081A
:101D6300F8888888887000203F2000030C3020000A
:101D7300708808080838000038202121221C001828
:101D83000808F8080818000000203F200000000899
:101D9300F808000008F808001F202020201F000872
:101DA30078880000C83808000007380E010000F8E2
:101DB3000800F80008F800033C0700073C0300088C
:101DC3001868808068180820302C03032C30200802
:101DD30038C800C83808000000203F200000001069
:101DE300080808C8380800203826212020180000D9
:101DF3000000FE020202000000007F40404000009D
:101E03000C30C000000000000000010638C00000D4
:101E1300020202FE000000004040407F000000007C
:101E230000040202020400000000000000000000A1
:101E3300000000000000008080808080808080009F
:101E43000202040000000000000000000000000087
:101E5300008080808000000019242222223F200875
:101E6300F8008080000000003F112020110E0000C8
:101E730000008080800000000E112020201100004F
:101E83000000808088F800000E112020103F200001
:101E930000808080800000001F2222222213000085
:101EA3008080F0888888180020203F2020000000D0
:101EB30000808080808000006B949494936000087D
:101EC300F8008080800000203F210000203F200098
:101ED300809898000000000020203F202000000090
:101EE3000000809898000000C08080807F00000878
:101EF300F8000080808000203F24022D3020000065
:101F03000808F8000000000020203F202000008087
:101F130080808080808000203F20003F20003F8021
:101F230080008080800000203F210000203F2000AF
:101F330000808080800000001F202020201F008060
:101F43008000808000000080FFA12020110E00008F
:101F530000008080808000000E112020A0FF808080
:101F63008080008080800020203F2120000100002D
:101F73000080808080800000332424242419000002
:101F83008080E0808000000000001F20200000808F
:101F930080000000808000001F202020103F208050
:101FA3008080000080808000010E300806010080E0
:101FB300800080008080800F300C030C300F000005
:101FC300808000808080000020312E0E3120008030
:101FD3008080000080808080818E70180601000060
:101FE300808080808080000021302C2221300000FE
:101FF300000000807C020200000000003F4040001F
:10200300000000FF00000000000000FF00000000CF
:1020130002027C800000000040403F0000000000FE
:102023000601010202040400000000000000000099
:10203300000000000000000000000000000000009D
:102043000000F80000000000000033300000000032
:10205300100C06100C0600000000000000000040F9
:10206300C07840C0784000043F04043F04040000EB
:102073007088FC08300000001820FF211E0000F0CB
:1020830008F000E018000000211C031E211E0000C0
:10209300F00888700000001E212324192721101046
:1020A300160E000000000000000000000000000009
:1020B3000000E018040200000000071820400000A0
:1020C300020418E000000000402018070000004050
:1020D3004080F0804040000202010F010202000034
:1020E3000000F0000000000101011F0101010000D8
:1020F3000000000000000080B0700000000000003D
:1021030000000000000000000101010101010100C5
:10211300000000000000000030300000000000005C
:102123000000008060180400601806010000000031
:10213300E010080810E000000F102020100F00002E
:102143001010F8000000000020203F2020000000B5
:10215300700808088870000030282422213000000D
:10216300300888884830000018202020110E000015
:1021730000C02010F8000000070424243F240000BE
:10218300F80888880808000019212020110E000093
:10219300E0108888180000000F112020110E0000A5
:1021A300380808C83808000000003F00000000009D
:1021B30070880808887000001C222121221C00005E
:1021C300E010080810E0000000312222110F000087
:1021D3000000C0C00000000000003030000000001C
:1021E300000080000000000000806000000000008C
:1021F3000080402010080000010204081020004065
:10220300404040404040000404040404040400002F
:102213000810204080000000201008040201000084
:102223007048080808F0000000003036010000C0C4
:1022330030C828E810E0000718272423140B0000F7
:1022430000C038E0000000203C23020227382008A9
:10225300F8888888700000203F202020110E00C0DD
:102263003008080808380007182020201008000844
:10227300F808080810E000203F202020100F000875
:10228300F88888E8081000203F2020232018000841
:10229300F88888E8081000203F200003000000C0F1
:1022A3003008080838000007182020221E02000802
:1022B300F808000008F808203F210101213F200011
:1022C3000808F8080800000020203F202000000034
:1022D300000808F8080800C08080807F000000081C
:1022E300F888C028180800203F200126382000085D
:1022F300F8080000000000203F20202020300008C4
:10230300F8F800F8F80800203F003F003F200008DD
:10231300F830C00008F808203F200007183F00E00D
:102323001008080810E0000F10202020100F0008EC
:10233300F808080808F000203F210101010000E02F
:102343001008080810E0000F18242438504F000824
:10235300F8888888887000203F2000030C30200014
:10236300708808080838000038202121221C001832
:102373000808F8080818000000203F2000000008A3
:10238300F808000008F808001F202020201F00087C
:1023930078880000C83808000007380E010000F8EC
:1023A3000800F80008F800033C0700073C03000896
:1023B3001868808068180820302C03032C3020080C
:1023C30038C800C83808000000203F200000001073
:1023D300080808C8380800203826212020180000E3
:1023E3000000FE020202000000007F4040400000A7
:1023F3000C30C000000000000000010638C00000DF
:10240300020202FE000000004040407F0000000086
:1024130000040202020400000000000000000000AB
:1024230000000000000000808080808080808000A9
:102433000202040000000000000000000000000091
:10244300008080808000000019242222223F20087F
:10245300F8008080000000003F112020110E0000D2
:1024630000008080800000000E1120202011000059
:102473000000808088F800000E112020103F20000B
:1024830000808080800000001F222222221300008F
:102493008080F0888888180020203F2020000000DA
:1024A30000808080808000006B9494949360000887
:1024B300F8008080800000203F210000203F2000A2
:1024C300809898000000000020203F20200000009A
:1024D3000000809898000000C08080807F00000882
:1024E300F8000080808000203F24022D302000006F
:1024F3000808F8000000000020203F202000008092
:1025030080808080808000203F20003F20003F802B
:1025130080008080800000203F210000203F2000B9
:1025230000808080800000001F202020201F00806A
:102533008000808000000080FFA12020110E000099
:1025430000008080808000000E112020A0FF80808A
:102553008080008080800020203F21200001000037
:10256300008080808080000033242424241900000C
:102573008080E0808000000000001F202000008099
:1025830080000000808000001F202020103F20805A
:102593008080000080808000010E300806010080EA
:1025A300800080008080800F300C030C300F00000F
:1025B300808000808080000020312E0E312000803A
:1025C3008080000080808080818E7018060100006A
:1025D300808080808080000021302C222130000008
:1025E300000000807C020200000000003F40400029
:1025F300000000FF00000000000000FF00000000DA
:1026030002027C800000000040403F000000000008
:1026130006010102020404000000000000000000A3
:1026230000000000000000000000000000000000A7
:102633000000000000000000000000000000000097
:102643000000000000000000F0F0F00000000000B7
:1026530000000000017F01000000000000000000F6
:102663001C1C1C0000000000008060301C8C6030CB
:102673001C0C00000000000000000000000000002F
:102683000000000000000000000000000000E00067
:1026930000000000E000000086E69F86868686E64E
:1026A3009F860000011F01010101011F01010000BC
:1026B3000080C06020F820E0C00000000003070C89
:1026C30018FF70E18100000000070F10107F100F4A
:1026D3000700008060206080000000E02000000F01
:1026E3003020309F70DC371030C0000000100E0324
:1026F300000718101807000000C02020E0C00000E9
:1027030000000080E01F38E88703C43C0400000792
:102713000F1810100B070D1010080000808C4C3898
:1027230000000000000000000000000000000000A6
:102733000000000000000000000000000000000096
:10274300000000000080E0300804000000000000EA
:10275300FEFF0100000000000000000000030F184E
:1027630020400000040830E080000000000000006A
:1027730000000001FFFE0000000000004020180FD1
:1027830003000000000000000000000000C0000083
:10279300000000004266663C18FF183C6666420073
:1027A3000000000000030000000000000000000023
:1027B30000800000000000001010101010FF101027
:1027C30010101000000000000003000000000000D3
:1027D30000000000000000000000000000000000F6
:1027E3000000000000000000808C4C380000000056
:1027F30000000000000000000000000000000000D6
:102803001010101010101010101000000000000025
:1028130000000000000000000000000000000000B5
:1028230000000000000000000000000000000000A5
:10283300001C1C1C00000000000000000000000041
:10284300000000E0380C000000000080701C030052
:102853000000000060380E010000000000000000CE
:102863000080C060202060C080000000FEFF0100E7
:1028730000000001FFFE000001070E181010180EE3
:102883000701000000808080C0E00000000000001D
:1028930000000000FFFF0000000000000010101007
:1028A3001F1F10101000000080402020202060C057
:1028B30080000000030300804020381F0700000051
:1028C3001C1A1918181818181F00000080C020209F
:1028D3002060C080000000000303001010182FE7E1
:1028E30080000000070F10101010180F07000000E1
:1028F3000000000000C0E0F000000000C0B08886C7
:102903008180FFFF808000000000000010101F1F67
:102913001010000000E06060606060606000000014
:10292300003F1008080818F0E0000000070B101023
:1029330010101C0F030000000080C040202020E086
:10294300C0000000FCFF211008080818F0E0000098
:1029530001070C18101010080F03000000C0E060FE
:1029630060606060E06000000003000000E01807A2
:1029730000000000000000001F1F00000000000016
:1029830080C0602020202060C080000087EF2C18CA
:1029930018303068CF830000070F0810101010188C
:1029A3000F07000000C0C020202020C080000000CE
:1029B3001F3F604040402010FFFE0000000C1C1031
:1029C3001010080F030000000000000000000000CA
:1029D30000000000000000000E0E0E0000000000CA
:1029E300000000001C1C1C00000000000000000090
:1029F3000000000000000000000000000C0C0000BC
:102A03000000000000000000583800000000000033
:102A13000000000000008040201000000010284447
:102A23008201000000000000000000000001020419
:102A3300081000000000000000000000000000007B
:102A4300848484848484848484840000000000005B
:102A53000000000000000000001020408000000083
:102A63000000000000000000000182442810000064
:102A7300001008040201000000000000C020201024
:102A830010101030E0C0000003030000F010080C29
:102A9300070300000000001C1C1C000000000000D5
:102AA3000000C0406020202040C00000FCFF01F077
:102AB3000E03C1FE03807F0001070E0811111011E0
:102AC3000904020000000080E0E0000000000000B4
:102AD30000807C4340477FF880000010181F1000DF
:102AE300000000131F1C100020E0E020202060C025
:102AF300C000000000FFFF101010182FE780000037
:102B0300101F1F10101010180F0700000080C04086
:102B13002020202060E00000FCFF010000000000F6
:102B23000001000001070E18101010080403002014
:102B330020E0E020202040C08000000000FFFF00D4
:102B430000000001FFFE0010101F1F101010080EE0
:102B530007010020E0E020202020202060800000EA
:102B6300FFFF101010107C00000000101F1F10103A
:102B73001010101018060020E0E020202020206014
:102B830060800000FFFF101010107C000001001097
:102B93001F1F100000000000000000000080C06044
:102BA30020202040E0000000FCFF0100004040C066
:102BB300C140400001070E181010100F0F00002035
:102BC300E0E0200000000020E0E02000FFFF101004
:102BD30010101010FFFF00101F1F10000000001046
:102BE3001F1F100000202020E0E020202000000014
:102BF30000000000FFFF00000000000000101010A4
:102C03001F1F101010000000000000202020E0E033
:102C130020202000000000000000FFFF0000000053
:102C230060E0808080C07F3F00000020E0E0200063
:102C33000020A06020200000FFFF30187CE3C000CC
:102C4300000000101F1F10000001131F1C1810208C
:102C5300E0E020000000000000000000FFFF000093
:102C630000000000000000101F1F101010101010B3
:102C730018060020E0E0E000000000E0E0E02000B3
:102C8300FF013FFEC0E01E01FFFF00101F10000305
:102C93001F0300101F1F1020E0E0C0000000000011
:102CA30020E02000FF0003071C78E08000FF0010F5
:102CB3001F100000000000030F1F00000080C06011
:102CC300202060C080000000FEFF01000000000023
:102CD300FFFE000001070E181010180C070100205A
:102CE300E0E0202020202060C0800000FFFF2020A3
:102CF300202020301F0F00101F1F100000000000B5
:102D0300000000000080C060202060C08000000040
:102D1300FEFF010000000000FFFE000001070E118E
:102D230011133C7C67210020E0E02020202020605C
:102D3300C0800000FFFF101030F0D0080F07001014
:102D43001F1F10000000030F1C10100080C0602024
:102D53002020204040E00000070F0C18183030609E
:102D6300E08100001F0C0810101010180F070080DE
:102D730060202020E0E0202020608001000000008F
:102D8300FFFF000000000100000000101F1F1000E3
:102D930000000020E0E020000000000020E0200010
:102DA300FFFF00000000000000FF0000070F1810E5
:102DB300101010100807002060E0E0200000002041
:102DC300E060200000077FF88000807C03000000A3
:102DD300000000071F1C070000000020E0E02000A7
:102DE300E0E0200020E0200007FFF8E01FFFFCE008
:102DF3001F00000000031F0300011F030000000069
:102E03002060E0A0000020E0602000000000038FAD
:102E13007CF8C6010000000010181E130001171FE4
:102E23001810002060E0E02000000020E060200097
:102E33000001073EF8E01807000000000000101032
:102E43001F1F101000000000806020202020A0E041
:102E5300E0200000000000C0F03E0F03000000006F
:102E6300101C1F171010101018060000000000009F
:102E7300FC0404040404000000000000FF00000040
:102E830000000000000000007F4040404040000080
:102E93000010E0000000000000000000000000033C
:102EA3001C60800000000000000000000000030C14
:102EB30070800000000404040404FC00000000000F
:102EC300000000000000FF00000000000040404040
:102ED30040407F0000000000000010080C040C08B4
:102EE30010000000000000000000000000000000CF
:102EF30000000000000000000000000000000000CF
:102F030000000000000000000000000000000000BE
:102F130000000080808080808080808080808000AE
:102F23000000040408080000000000000000000086
:102F3300000000000000000000000000000000008E
:102F4300000000000000000000000000000000007E
:102F53000098D844642424FCF80000000F1F1810C4
:102F63001010081F1F10180020E0F00000000000E0
:102F73000000000000FFFF180804040CF8F0000034
:102F8300001F0F18101010180F030000000000009E
:102F93000000000000000000E0F8180404043C38BE
:102FA30000000000030F0C101010100806000000B2
:102FB30000000000000020E0F0000000E0F81C0426
:102FC300040408FFFF000000030F18101010081F6F
:102FD3000F080000000000000000000000000000D7
:102FE30000E0F8484444444C7870000000030F0CA0
:102FF300181010100804000000000080C06020209A
:10300300E0C00000040404FFFF0404040400000003
:103013000010101F1F10101000000000000000001F
:1030230000000000000000000070F88C04048CF81D
:1030330074040C007076CF8D8D8D89C87870000074
:1030430020E0F000000000000000000000FFFF0887
:10305300040404FCF8000000101F1F100000101FE0
:103063001F1000000000000060600000000000006E
:1030730000040404FCFC0000000000000010101019
:103083001F1F10101000000000000000000060600F
:1030930000000000000000040404FCFC0000000029
:1030A30000C0C08080C07F3F0000000020E0F0002F
:1030B300000000000000000000FFFF80C0F41C04BB
:1030C30004000000101F1F1100031F1C101000003C
:1030D30000202020E0F000000000000000000000BD
:1030E300FFFF000000000000001010101F1F101051
:1030F30010000000000000000000000000000004B9
:10310300FCFC0804FCFC0804FCFC00101F1F10005E
:103113001F1F10001F1F1000000000000000000010
:103123000000000004FCFC08080404FCF800000094
:10313300101F1F100000101F1F10000000000000D0
:103143000000000000000000E0F0180C04040C185C
:10315300F0E00000030F0C101010100C0F03000020
:1031630000000000000000000000000004FCFC0858
:103173000404040CF8F0000080FFFF889010101C7A
:103183000F0300000000000000000000000000002A
:10319300E0F81C04040408F8FC000000030F1810F6
:1031A300109088FFFF800000000000000000000076
:1031B300000000040404FCFC100804040C0C0010C0
:1031C30010101F1F1010100000000000000000006E
:1031D3000000000000000000003078CCC484848428
:1031E3000C1C0000001E1810101011190F0600000F
:1031F30000000000C000000000000000040404FF01
:10320300FF040404000000000000000F1F10101052
:103213000C0000000000000000000000000000009F
:1032230004FCFE00000004FCFE000000000F1F1859
:103233001010081F0F08000000000000000000002D
:1032430000000000040C3CFCC40000C43C0C04005F
:10325300000000010F1E0E0100000000000000002E
:1032630000000000000000043CFCC400E47CFC847B
:10327300807C040000071F070000071F07000000F1
:1032830000000000000000000000000004041C7C9B
:10329300E4C0341C0404000010101C1601131F1C8E
:1032A30018100000000000000000000000000000F3
:1032B300040C3CFCC400C43C0404000000C080C1F6
:1032C300370E0100000000000000000000000000B5
:1032D30000000000001C0404C4F47C1C0400000073
:1032E30000101C1F17111010180E00000000000022
:1032F3000000F80C04000000000000001028EF009C
:10330300000000000000000000003F6040000000DB
:103313000000000000FF00000000000000000000AB
:1033230000FF0000000000000000000000FF00009C
:103333000000000000040CF8000000000000000082
:10334300000000EF28100000000000000040603F74
:10335300000000000000000018060202040810200C
:103363002030080000000000000000000000000002
:10337300000000000000000000000000000000004A
:1033830000000000000000000000000080F8381872
:103393001818F8F818181838F80000001F01000072
:1033A3000000FFFF00000000011E000000000000FD
:1033B3000000FFFF0000000000000000000000000C
:1033C3000000FFFF000000000000000000000000FC
:1033D3000000FFFF000000000000000000000000EC
:1033E30030303F3F3030000000000000000000009C
:1033F30000000000000000000000000000000000CA
:1034030000000000000000000000000000000000B9
:1034130000000000000000000000000000000000A9
:10342300000000000000000000000000070707077D
:10343300070707070707070707070000E0E0E0E0C3
:10344300E0E0E0E0E0E0E0E0E0E0000000000000B9
:103453000000000000000000000000000000000069
:103463000000000000000000000000000000000059
:103473000000000000000000000000000000000049
:103483000000000000000000000000000000000039
:103493000000000000000000000000000000000029
:1034A300000000000000000000000000C0C0C0C019
:1034B300C0C0C0C0C0C0C0C0C0C000000101010185
:1034C30001010101010101010101000000000000EF
:1034D30000000000000000000000000000000000E9
:1034E30000000000000000000000000000000000D9
:1034F30000000000000000000000000000000000C9
:1035030000000000000000000000000000000000B8
:1035130000000000000000000000000000000000A8
:10352300000000FF0000000000000000C0C0C0C099
:10353300C0C0C0FFC0C0C0C0C0C0000001010101C5
:10354300010101FF01010101010100000000000070
:103553000000007F000000000000000000000000E9
:103563000000000000000000000000000000000058
:103573000000000000000000000000000000000048
:103583000000000000000000000000000000000038
:103593000000000000000000000000000000000028
:1035A3000000000000000000000000000000000018
:1035B3000000000000000000000000000000000008
:1035C30000000000000000000000000000008080F8
:1035D300000000000000000000000000001E7F7FCC
:1035E3001E000000000000000000000000000000BA
:1035F30000000000000000000000000000000000C8
:10360300000000000000000000000000000000C0F7
:10361300F038181838F0C0000000000000F0FF1F59
:103623000000000000003FFFF000000000FFFF006B
:1036330000000000000000FFFF00000001FFFF008A
:1036430000000000000000FFFF000000001FFFF06B
:10365300000000000000F0FF1F0000000000010F49
:103663001E383030381E0701000000000000000043
:103673000000000000000000000000000000000047
:10368300000000000000000000000000000000C077
:10369300C0C0E0F8000000000000000000000000CF
:1036A3000000FFFF00000000000000000000000019
:1036B3000000FFFF00000000000000000000000009
:1036C3000000FFFF000000000000000000000000F9
:1036D3000000FFFF000000000000000000000030B9
:1036E30030303F3F38303030000000000000000031
:1036F30000000000000000000000000000000000C7
:103703000000000000000000000000000000C06096
:10371300301818181870F0C00000000000FEFFE019
:1037230000000000000007FFFC0000000000010192
:103733000000000000E0FF1F010000000000000087
:103743000080E0380F030000000000000000E038B4
:103753000E03000000000000F8000000003F3D3CA5
:103763003C3C3C3C3C3C3C3F030000000000000070
:103773000000000000000000000000000000000046
:103783000000000000000000000000000000C07006
:103793001818181838F0C00000000000003E7F38E9
:1037A300000000000001FFFF000000000000000017
:1037B30000C0C0C0F03C0F03000000000000000088
:1037C3000000000001073EF8C000000000F8F8F018
:1037D30000000000000080FF7F00000000030F18BE
:1037E30030202020301C0F030000000000000000E8
:1037F30000000000000000000000000000000000C6
:1038030000000000000000000000000000000000B5
:1038130000000000E0F8F8000000000000000000D5
:103823000080780FFFFFFF0000000000000000E0B1
:103833001C030000FFFFFF000000000080F88F80E2
:1038430080808080FFFFFF808080000001010101F4
:1038530001010101FFFFFF01010100000000000061
:10386300003030303F3F3F30303000000000000078
:103873000000000000000000000000000000000045
:103883000000000000000000000000000000F878C5
:103893007878787878787878180000000000FF004E
:1038A3000000000000000000000000000000FFC056
:1038B300301818183878F0C000000000000003002A
:1038C30000000000000007FFFC00000000FCFC38C3
:1038D300000000000000C0FF7F00000000030F187D
:1038E30030202020301C0F030000000000000000E7
:1038F30000000000000000000000000000000000C5
:103903000000000000000000000000000000008034
:10391300E03018181818F0E00000000000E0FE0F77
:1039230000000000000007070000000000FFFF8008
:10393300E03038183878F0E00000000004FFFF079B
:1039430000000000000001FFFF000000007FFFC037
:1039530000000000000000FFFF0000000000030F54
:103963001C30202030301E07000000000000000043
:103973000000000000000000000000000000000044
:103983000000000000000000000000000000F8F844
:1039930078787878787878F878000000003F03002A
:1039A3000000000000C03C07000000000000000011
:1039B300000000C0FC070000000000000000000041
:1039C3000000FCFF000000000000000000000000F9
:1039D30000FFFFC000000000000000000000000026
:1039E300003F3F070000000000000000000000004F
:1039F30000000000000000000000000000000000C4
:103A03000000000000000000000000000000C07083
:103A1300381818181830E0C00000000000FFFF003D
:103A230000000000000000FFFE00000000030F3F45
:103A3300FCF0E0C0C0701C0F0100000000F07C0E21
:103A4300010001030F1FFEF8C00000003EFF00004D
:103A530000000000000000FFFF00000000030F1C37
:103A63003030202030381E07000000000000000026
:103A73000000000000000000000000000000000043
:103A83000000000000000000000000000000C0F083
:103A9300381818181870E00000000000C0FFFF007D
:103AA30000000000000007FFF00000000FFFFF0010
:103AB300000000000000E0FFFF00000000030F1EF5
:103AC300383030381C0781FFFF0000000000C0C001
:103AD300000000000080FF7F0300000000001F3F84
:103AE300306020301C0F03000000000000000000C5
:103AF30000000000000000000000000000000000C3
:103B0300000000000000000000000000000000F0C2
:103B1300013F0010C1C3001061000710310006E02F
:103B230018000400180004000C0004000C0004003A
:103B33000C0004000C0000000C0000000C0000004E
:103B43000C0000000C0000000C0000000C00000042
:103B53001C000000180000003800040030000200C0
:103B6300E0800100C0FF0000001F00000000000013
:103B73000000000000000000000000000000000042
:103B8300000000000000000000000000000000C072
:103B9300E0301818181830F0F800000000F8FF0F94
:103BA3000000000000000000073C0000FFFF0F00C2
:103BB300000000000000000000000000FFFFC00044
:103BC30000000000000000000000000003FFFFC031
:103BD3000000000000000000E01C00000000030FD4
:103BE3001C3830303030180601000000000000009F
:103BF30000000000000000000000000000000000C2
:103C0300000000000000000000000000000000F0C1
:103C1300FC1E0707071EFCF0000000000000000761
:103C23001F3C7070703C1F07000000000000000084
:103C33000000000000000000000000000000000081
:103C43000000000000000000000000000000000071
:103C53000000000000000000000000000000000061
:103C63000000000000000000000000000000000051
:103C73000000000000000000000000000000000041
:103C83000000000000000000000000000000000031
:103C93000000000000000000000000000000000021
:103CA3000000000000000000000000000000000011
:103CB3000000000000000000000000000000000001
:103CC30000000000000000000000000000000000F1
:103CD30000000000000000000000000000000000E1
:103CE30000000000000000000000000000000000D1
:103CF300000000000000000000000064733138621F
:103D0300323020746573740D0A0054656D70203D64
:103D130020252E3166090050574D203D20256C6427
:033D23000D0A0086
:00000001FF
